{"abi":[{"type":"constructor","inputs":[],"stateMutability":"nonpayable"},{"type":"function","name":"approve","inputs":[{"name":"to","type":"address","internalType":"address"},{"name":"tokenId","type":"uint256","internalType":"uint256"}],"outputs":[],"stateMutability":"payable"},{"type":"function","name":"balanceOf","inputs":[{"name":"owner","type":"address","internalType":"address"}],"outputs":[{"name":"","type":"uint256","internalType":"uint256"}],"stateMutability":"view"},{"type":"function","name":"getApproved","inputs":[{"name":"tokenId","type":"uint256","internalType":"uint256"}],"outputs":[{"name":"","type":"address","internalType":"address"}],"stateMutability":"view"},{"type":"function","name":"isApprovedForAll","inputs":[{"name":"owner","type":"address","internalType":"address"},{"name":"operator","type":"address","internalType":"address"}],"outputs":[{"name":"","type":"bool","internalType":"bool"}],"stateMutability":"view"},{"type":"function","name":"maxSupply","inputs":[],"outputs":[{"name":"","type":"uint8","internalType":"uint8"}],"stateMutability":"view"},{"type":"function","name":"name","inputs":[],"outputs":[{"name":"","type":"string","internalType":"string"}],"stateMutability":"view"},{"type":"function","name":"ownerOf","inputs":[{"name":"tokenId","type":"uint256","internalType":"uint256"}],"outputs":[{"name":"","type":"address","internalType":"address"}],"stateMutability":"view"},{"type":"function","name":"promptDescription","inputs":[],"outputs":[{"name":"","type":"string","internalType":"string"}],"stateMutability":"pure"},{"type":"function","name":"safeMint","inputs":[{"name":"_quantity","type":"uint8","internalType":"uint8"}],"outputs":[],"stateMutability":"payable"},{"type":"function","name":"safeTransferFrom","inputs":[{"name":"from","type":"address","internalType":"address"},{"name":"to","type":"address","internalType":"address"},{"name":"tokenId","type":"uint256","internalType":"uint256"}],"outputs":[],"stateMutability":"payable"},{"type":"function","name":"safeTransferFrom","inputs":[{"name":"from","type":"address","internalType":"address"},{"name":"to","type":"address","internalType":"address"},{"name":"tokenId","type":"uint256","internalType":"uint256"},{"name":"_data","type":"bytes","internalType":"bytes"}],"outputs":[],"stateMutability":"payable"},{"type":"function","name":"setApprovalForAll","inputs":[{"name":"operator","type":"address","internalType":"address"},{"name":"approved","type":"bool","internalType":"bool"}],"outputs":[],"stateMutability":"nonpayable"},{"type":"function","name":"supportsInterface","inputs":[{"name":"interfaceId","type":"bytes4","internalType":"bytes4"}],"outputs":[{"name":"","type":"bool","internalType":"bool"}],"stateMutability":"view"},{"type":"function","name":"symbol","inputs":[],"outputs":[{"name":"","type":"string","internalType":"string"}],"stateMutability":"view"},{"type":"function","name":"tokenURI","inputs":[{"name":"tokenId","type":"uint256","internalType":"uint256"}],"outputs":[{"name":"","type":"string","internalType":"string"}],"stateMutability":"view"},{"type":"function","name":"totalSupply","inputs":[],"outputs":[{"name":"result","type":"uint256","internalType":"uint256"}],"stateMutability":"view"},{"type":"function","name":"transferFrom","inputs":[{"name":"from","type":"address","internalType":"address"},{"name":"to","type":"address","internalType":"address"},{"name":"tokenId","type":"uint256","internalType":"uint256"}],"outputs":[],"stateMutability":"payable"},{"type":"event","name":"Approval","inputs":[{"name":"owner","type":"address","indexed":true,"internalType":"address"},{"name":"approved","type":"address","indexed":true,"internalType":"address"},{"name":"tokenId","type":"uint256","indexed":true,"internalType":"uint256"}],"anonymous":false},{"type":"event","name":"ApprovalForAll","inputs":[{"name":"owner","type":"address","indexed":true,"internalType":"address"},{"name":"operator","type":"address","indexed":true,"internalType":"address"},{"name":"approved","type":"bool","indexed":false,"internalType":"bool"}],"anonymous":false},{"type":"event","name":"ConsecutiveTransfer","inputs":[{"name":"fromTokenId","type":"uint256","indexed":true,"internalType":"uint256"},{"name":"toTokenId","type":"uint256","indexed":false,"internalType":"uint256"},{"name":"from","type":"address","indexed":true,"internalType":"address"},{"name":"to","type":"address","indexed":true,"internalType":"address"}],"anonymous":false},{"type":"event","name":"Transfer","inputs":[{"name":"from","type":"address","indexed":true,"internalType":"address"},{"name":"to","type":"address","indexed":true,"internalType":"address"},{"name":"tokenId","type":"uint256","indexed":true,"internalType":"uint256"}],"anonymous":false},{"type":"error","name":"ApprovalCallerNotOwnerNorApproved","inputs":[]},{"type":"error","name":"ApprovalQueryForNonexistentToken","inputs":[]},{"type":"error","name":"BalanceQueryForZeroAddress","inputs":[]},{"type":"error","name":"MintERC2309QuantityExceedsLimit","inputs":[]},{"type":"error","name":"MintToZeroAddress","inputs":[]},{"type":"error","name":"MintZeroQuantity","inputs":[]},{"type":"error","name":"NotCompatibleWithSpotMints","inputs":[]},{"type":"error","name":"OwnerQueryForNonexistentToken","inputs":[]},{"type":"error","name":"OwnershipNotInitializedForExtraData","inputs":[]},{"type":"error","name":"SequentialMintExceedsLimit","inputs":[]},{"type":"error","name":"SequentialUpToTooSmall","inputs":[]},{"type":"error","name":"SpotMintTokenIdTooSmall","inputs":[]},{"type":"error","name":"TokenAlreadyExists","inputs":[]},{"type":"error","name":"TransferCallerNotOwnerNorApproved","inputs":[]},{"type":"error","name":"TransferFromIncorrectOwner","inputs":[]},{"type":"error","name":"TransferToNonERC721ReceiverImplementer","inputs":[]},{"type":"error","name":"TransferToZeroAddress","inputs":[]},{"type":"error","name":"URIQueryForNonexistentToken","inputs":[]}],"bytecode":{"object":"0x60806040526009805460ff1916600517905534801561001d57600080fd5b506040518060400160405280600881526020016710dc985e9e53919560c21b8152506040518060400160405280600481526020016310d3919560e21b815250816002908161006b9190610125565b5060036100788282610125565b505060008055506101e4565b634e487b7160e01b600052604160045260246000fd5b600181811c908216806100ae57607f821691505b6020821081036100ce57634e487b7160e01b600052602260045260246000fd5b50919050565b601f821115610120576000816000526020600020601f850160051c810160208610156100fd5750805b601f850160051c820191505b8181101561011c57828155600101610109565b5050505b505050565b81516001600160401b0381111561013e5761013e610084565b6101528161014c845461009a565b846100d4565b602080601f831160018114610187576000841561016f5750858301515b600019600386901b1c1916600185901b17855561011c565b600085815260208120601f198616915b828110156101b657888601518255948401946001909101908401610197565b50858210156101d45787850151600019600388901b60f8161c191681555b5050505050600190811b01905550565b611018806101f36000396000f3fe6080604052600436106100fe5760003560e01c806370a0823111610095578063b88d4fde11610064578063b88d4fde1461027a578063c87b56dd1461028d578063d5abeb01146102ad578063da863ed6146102d9578063e985e9c5146102ec57600080fd5b806370a0823114610210578063953637311461023057806395d89b4114610245578063a22cb4651461025a57600080fd5b806318160ddd116100d157806318160ddd146101a757806323b872dd146101ca57806342842e0e146101dd5780636352211e146101f057600080fd5b806301ffc9a71461010357806306fdde0314610138578063081812fc1461015a578063095ea7b314610192575b600080fd5b34801561010f57600080fd5b5061012361011e366004610bc8565b610335565b60405190151581526020015b60405180910390f35b34801561014457600080fd5b5061014d610387565b60405161012f9190610c35565b34801561016657600080fd5b5061017a610175366004610c48565b610419565b6040516001600160a01b03909116815260200161012f565b6101a56101a0366004610c78565b610454565b005b3480156101b357600080fd5b50600154600054035b60405190815260200161012f565b6101a56101d8366004610ca2565b610464565b6101a56101eb366004610ca2565b6105c9565b3480156101fc57600080fd5b5061017a61020b366004610c48565b6105e9565b34801561021c57600080fd5b506101bc61022b366004610cde565b6105f4565b34801561023c57600080fd5b5061014d6105ff565b34801561025157600080fd5b5061014d61061f565b34801561026657600080fd5b506101a5610275366004610cf9565b61062e565b6101a5610288366004610d4b565b61069a565b34801561029957600080fd5b5061014d6102a8366004610c48565b6106db565b3480156102b957600080fd5b506009546102c79060ff1681565b60405160ff909116815260200161012f565b6101a56102e7366004610e27565b610756565b3480156102f857600080fd5b50610123610307366004610e4a565b6001600160a01b03918216600090815260076020908152604080832093909416825291909152205460ff1690565b60006301ffc9a760e01b6001600160e01b03198316148061036657506380ac58cd60e01b6001600160e01b03198316145b806103815750635b5e139f60e01b6001600160e01b03198316145b92915050565b60606002805461039690610e7d565b80601f01602080910402602001604051908101604052809291908181526020018280546103c290610e7d565b801561040f5780601f106103e45761010080835404028352916020019161040f565b820191906000526020600020905b8154815290600101906020018083116103f257829003601f168201915b5050505050905090565b600061042482610766565b610438576104386333d1c03960e21b6107ab565b506000908152600660205260409020546001600160a01b031690565b610460828260016107b5565b5050565b600061046f82610858565b6001600160a01b0394851694909150811684146104955761049562a1148160e81b6107ab565b60008281526006602052604090208054338082146001600160a01b038816909114176104d9576104c58633610307565b6104d9576104d9632ce44b5f60e11b6107ab565b80156104e457600082555b6001600160a01b038681166000908152600560205260408082208054600019019055918716808252919020805460010190554260a01b17600160e11b17600085815260046020526040812091909155600160e11b84169003610576576001840160008181526004602052604081205490036105745760005481146105745760008181526004602052604090208490555b505b6001600160a01b0385168481887fddf252ad1be2c89b69c2b068fc378daa952ba7f163c4a11628f55a4df523b3ef600080a4806000036105c0576105c0633a954ecd60e21b6107ab565b50505050505050565b6105e48383836040518060200160405280600081525061069a565b505050565b600061038182610858565b6000610381826108ee565b6060604051806080016040528060478152602001610f9c60479139905090565b60606003805461039690610e7d565b3360008181526007602090815260408083206001600160a01b03871680855290835292819020805460ff191686151590811790915590519081529192917f17307eab39ab6107e8899845ad3d59bd9653f200f220920489ca2b5937696c31910160405180910390a35050565b6106a5848484610464565b6001600160a01b0383163b156106d5576106c184848484610934565b6106d5576106d56368d2bf6b60e11b6107ab565b50505050565b60606106e682610766565b6106fa576106fa630a14c4b560e41b6107ab565b6000610704610a16565b90508051600003610724576040518060200160405280600081525061074f565b8061072e84610a36565b60405160200161073f929190610eb7565b6040516020818303038152906040525b9392505050565b610763338260ff16610a7a565b50565b600080548210156107a65760005b506000828152600460205260408120549081900361079c5761079583610ee6565b9250610774565b600160e01b161590505b919050565b8060005260046000fd5b60006107c0836105e9565b90508180156107d85750336001600160a01b03821614155b156107fb576107e78133610307565b6107fb576107fb6367d9dca160e11b6107ab565b60008381526006602052604080822080546001600160a01b0319166001600160a01b0388811691821790925591518693918516917f8c5be1e5ebec7d5bd14f71427d1e84f3dd0314c0f7b2291e5b200ac8c7c3b92591a450505050565b600081815260046020526040902054806000036108cb57600054821061088857610888636f96cda160e11b6107ab565b5b5060001901600081815260046020526040902054801561088957600160e01b81166000036108b657919050565b6108c6636f96cda160e11b6107ab565b610889565b600160e01b81166000036108de57919050565b6107a6636f96cda160e11b6107ab565b60006001600160a01b03821661090e5761090e6323d3ad8160e21b6107ab565b506001600160a01b031660009081526005602052604090205467ffffffffffffffff1690565b604051630a85bd0160e11b81526000906001600160a01b0385169063150b7a0290610969903390899088908890600401610f0b565b6020604051808303816000875af19250505080156109a4575060408051601f3d908101601f191682019092526109a191810190610f48565b60015b6109f9573d8080156109d2576040519150601f19603f3d011682016040523d82523d6000602084013e6109d7565b606091505b5080516000036109f1576109f16368d2bf6b60e11b6107ab565b805181602001fd5b6001600160e01b031916630a85bd0160e11b149050949350505050565b6060604051806060016040528060368152602001610f6660369139905090565b606060a06040510180604052602081039150506000815280825b600183039250600a81066030018353600a900480610a505750819003601f19909101908152919050565b610460828260405180602001604052806000815250610a998383610af3565b6001600160a01b0383163b156105e4576000548281035b610ac36000868380600101945086610934565b610ad757610ad76368d2bf6b60e11b6107ab565b818110610ab0578160005414610aec57600080fd5b5050505050565b6000805490829003610b0f57610b0f63b562e8dd60e01b6107ab565b60008181526004602090815260408083206001600160a01b0387164260a01b6001881460e11b17811790915580845260059092528220805468010000000000000001860201905590819003610b6d57610b6d622e076360e81b6107ab565b818301825b808360007fddf252ad1be2c89b69c2b068fc378daa952ba7f163c4a11628f55a4df523b3ef600080a4818160010191508103610b72575060005550505050565b6001600160e01b03198116811461076357600080fd5b600060208284031215610bda57600080fd5b813561074f81610bb2565b60005b83811015610c00578181015183820152602001610be8565b50506000910152565b60008151808452610c21816020860160208601610be5565b601f01601f19169290920160200192915050565b60208152600061074f6020830184610c09565b600060208284031215610c5a57600080fd5b5035919050565b80356001600160a01b03811681146107a657600080fd5b60008060408385031215610c8b57600080fd5b610c9483610c61565b946020939093013593505050565b600080600060608486031215610cb757600080fd5b610cc084610c61565b9250610cce60208501610c61565b9150604084013590509250925092565b600060208284031215610cf057600080fd5b61074f82610c61565b60008060408385031215610d0c57600080fd5b610d1583610c61565b915060208301358015158114610d2a57600080fd5b809150509250929050565b634e487b7160e01b600052604160045260246000fd5b60008060008060808587031215610d6157600080fd5b610d6a85610c61565b9350610d7860208601610c61565b925060408501359150606085013567ffffffffffffffff80821115610d9c57600080fd5b818701915087601f830112610db057600080fd5b813581811115610dc257610dc2610d35565b604051601f8201601f19908116603f01168101908382118183101715610dea57610dea610d35565b816040528281528a6020848701011115610e0357600080fd5b82602086016020830137600060208483010152809550505050505092959194509250565b600060208284031215610e3957600080fd5b813560ff8116811461074f57600080fd5b60008060408385031215610e5d57600080fd5b610e6683610c61565b9150610e7460208401610c61565b90509250929050565b600181811c90821680610e9157607f821691505b602082108103610eb157634e487b7160e01b600052602260045260246000fd5b50919050565b60008351610ec9818460208801610be5565b835190830190610edd818360208801610be5565b01949350505050565b600081610f0357634e487b7160e01b600052601160045260246000fd5b506000190190565b6001600160a01b0385811682528416602082015260408101839052608060608201819052600090610f3e90830184610c09565b9695505050505050565b600060208284031215610f5a57600080fd5b815161074f81610bb256fe697066733a2f2f516d52677a6257776170666962356a58507465374a61653248565432654b796a67725a766f6861646a34704252442f61207370616365206d696e696f6e206e6674206120352d6974656d20636f6c6c656374696f6e20612070726f6772616d6d657220636174206e66742061206661646578206e6674a264697066735822122083aa1c9241942d24f96589fdeebf12f0279362383c52f849698349aa01ba9be064736f6c63430008190033","linkReferences":{}},"methodIdentifiers":{"approve(address,uint256)":"095ea7b3","balanceOf(address)":"70a08231","getApproved(uint256)":"081812fc","isApprovedForAll(address,address)":"e985e9c5","maxSupply()":"d5abeb01","name()":"06fdde03","ownerOf(uint256)":"6352211e","promptDescription()":"95363731","safeMint(uint8)":"da863ed6","safeTransferFrom(address,address,uint256)":"42842e0e","safeTransferFrom(address,address,uint256,bytes)":"b88d4fde","setApprovalForAll(address,bool)":"a22cb465","supportsInterface(bytes4)":"01ffc9a7","symbol()":"95d89b41","tokenURI(uint256)":"c87b56dd","totalSupply()":"18160ddd","transferFrom(address,address,uint256)":"23b872dd"},"id":0}